:020000040800F2
:100000006805002001010008A31E0008B11A0008BD
:10001000A11E0008850700087B21000800000000E1
:10002000000000000000000000000000C71E0008E3
:100030008707000800000000C51E0008C91E000850
:100040001B0100081B0100081B0100081B01000820
:100050001B0100081B0100081B0100081B01000810
:100060001B0100081B0100081B0100081B01000800
:100070001B0100081B0100081B0100081B010008F0
:100080001B0100081B0100081B0100081B010008E0
:100090001B0100081B0100081B0100081B010008D0
:1000A0001B0100081B0100081B0100081B010008C0
:1000B0001B0100081B0100081B0100081B010008B0
:1000C0001B0100081B0100081B0100081B010008A0
:1000D0001B0100081B0100081B0100081B01000890
:1000E0001B0100081B0100081B010008DFF80CD0F1
:1000F00000F036FB00480047992A000868050020F8
:100100000648804706480047FEE7FEE7FEE7FEE7B1
:10011000FEE7FEE7FEE7FEE7FEE7FEE7311F000829
:10012000ED000008202A04DB203A21FA02F0002129
:10013000704721FA02F3D040C2F1200291400843F7
:1001400019467047421C10F8011B0029FBD1801A88
:1001500070472DE9FE4F804681EA0300C00F0C4630
:10016000009021F0004123F00045B8EB0200A941C6
:1001700005D24046214690461C460B46024623F0D7
:100180000040104347D0270DC7F30A00C3F30A51BC
:100190000290401A019040286BDAC3F3130040F438
:1001A000801B0098924620B10023D2EB030A63EB38
:1001B0000B0B01985946C0F14002504600F07CF903
:1001C00006460D4650465946019A00F084F910EB58
:1001D00008006141002487EA115284EAE7731A4358
:1001E00040D0009A62B3019A012A4FEA075215DC07
:1001F000001B61EB02014FF0004202EA0752CDE919
:100200000042001C41F5801132462B4600F0BBF93C
:1002100003B0BDE8F08F40462146F9E7001B61EBD3
:100220000201001C41F5801300185B412018A2F563
:10023000001747EB030140EAD570B6196D4111E094
:100240006D084FEA360645EAC0754FEA0752001BB3
:1002500061EB0201001C41F5801149084FEA3000B2
:100260000019514132462B4603B0BDE8F04F00F073
:100270007BB90098012240000023D0EB020263EB1F
:10028000E073009821464FEAE074B8EB000061EBA0
:100290000401E9E783F000435BE781F0004158E7A0
:1002A0002DE9FE4F81EA030404F0004421F00041EF
:1002B00000944FF0000B23F0004350EA01045ED09D
:1002C00052EA03045BD0C3F30A54C1F30A552C4429
:1002D000A4F2F3340194A0FB0254C1F3130141F4DE
:1002E0008011C3F3130343F4801301FB024400FBAA
:1002F000034E840A970A44EA815447EA8357A4FBD1
:10030000076802958D0A05FB07854FEA932C04FBCD
:100310000C542705029D4FEA065847EA1637B5EBFD
:1003200008056EEB070C870E920E47EA811742EA2A
:100330008312A7FB0201B6EB0B0164EB00042B0D4B
:1003400043EA0C335E1844EB1C50DA465146E7FB97
:100350000201C5F313044FEA0B3343EA14534FEA87
:100360000432019C43EA0603A4F10C040294009CAD
:10037000CDE900B400F007F903B0BDE8F08F00202C
:100380000146F9E770B521F0004303430CD0C1F3F7
:100390000A550024D5EB040564EB0403D617AD1A07
:1003A000B34102DB0020014670BD201841EB025131
:1003B00070BD0EB540F2334102910021CDE900112C
:1003C0000A460B4600F0DFF803B000BD00F0004223
:1003D00030F000400AD0C10D01F56071C0F3160085
:1003E00042EA0151C208400711437047002001460C
:1003F000704701F0004330B421F0004150EA01029F
:1004000006D00A0DA2F56072C1F31301002A02DCC6
:1004100030BC00207047440F44EAC104C100E0181A
:1004200030BC00EBC25000F068B830B50B46014656
:1004300000202022012409E021FA02F59D4205D383
:1004400003FA02F5491B04FA02F52844151EA2F12D
:100450000102F1DC30BD2DE9F05F05460020924637
:100460009B4688460646814640241BE02846414676
:1004700047462246FFF756FE53465A46C01A914158
:1004800010D311461846224600F016F82D1A67EBD5
:1004900001084F4622460120002100F00DF817EB1D
:1004A00000094E41201EA4F10104DFDC484631461C
:1004B0002A464346BDE8F09F202A04DB203A00FA92
:1004C00002F1002070479140C2F1200320FA03F3AB
:1004D000194390407047202A06DBCB17203A41FA97
:1004E00002F043EAE07306E041FA02F3D040C2F1C1
:1004F000200291400843194670470029A8BF704761
:10050000401C490008BF20F00100704710B4B0FA49
:1005100080FC00FA0CF050EA010404BF10BC7047E4
:1005200049B1CCF1200421FA04F411FA0CF118BFFE
:10053000012121430843A3EB0C01CB1D4FEA0061CD
:100540004FEA102042BF002010BC704700EBC350A0
:1005500010440029A4BF10BC7047401C490008BFCC
:1005600020F0010010BC704710B5141E73F1000498
:1005700008DA401C41F1000192185B411A4301D195
:1005800020F0010010BD2DE9F04D92469B4611B1BF
:10059000B1FA81F202E0B0FA80F220329046FFF721
:1005A0008BFF04460F4640EA0A0041EA0B0153461E
:1005B0005A46084313D0114653EA010019D0C8F136
:1005C00040025046FFF7AEFD05460E4650465946DE
:1005D0004246FFF771FF084305D0012004E02046A2
:1005E0003946BDE8F08D0020054346EAE0762C430D
:1005F00037430A986305E40AA0EB08000022FD0ACD
:1006000044EA47540A3002D500200146E9E70105D3
:1006100010196941DDE9084500196941BDE8F04D4F
:10062000A2E72DE9F04D81EA030404F0004B21F02C
:10063000004514464FF0000A23F0004150EA05023D
:1006400020D054EA01021DD0C5F30A570246C5F373
:100650001303C1F31300C1F30A5640F4801543F4A9
:100660008013A7EB0608101BD64608F2FD3873EB83
:10067000050002D308F1010801E092185B41B8F1CE
:10068000000F03DA00200146BDE8F08D00204FF492
:100690008011064684460EE0171B73EB050705D351
:1006A000121B63EB050306434CEA010C49084FEAB1
:1006B000300092185B4150EA0107EDD152EA030085
:1006C00012D082EA040083EA0501084305D0101B1A
:1006D000AB4106D20122002306E000224FF0004386
:1006E00002E06FF0010253101AEB06004CEB0851C8
:1006F00010EB0A0041EB0B01BDE8F04DFFF734BFF2
:10070000C1F30A52C1F3130140F2FF3341F48011E7
:100710009A4202DA00200146704740F233439A427F
:10072000A2F2334202DC5242FFF7FCBCFFF7C4BE28
:1007300030B5041E71F1000404DB4FF00044404268
:1007400064EB0101141E73F1000405DB1C464FF03D
:100750000043524263EB0403994208BF904230BD0C
:10076000064C074D06E0E06840F0010394E80700FE
:1007700098471034AC42F6D3FFF7BCFC282D000894
:10078000482D0008FEE7704731B500F0F1F8044647
:1007900000F0EEF80099001B8842F9D338BD000044
:1007A0002DE9F84FDFF890A100220AF1040B14465E
:1007B00001274FF00F090BF1040E00BF0B6807FA79
:1007C00004F52B40AB4274D1DFF870C14E68A6EB44
:1007D0000C0866452BD00DDC032E34D005DC36B377
:1007E000012E19D0022E2FD11BE0112E16D0122E61
:1007F0002AD119E0B8F5881F19D006DCB8F5803F7A
:1008000015D0B8F5801F1FD111E0B8F5001F0ED02C
:10081000B8F5041F18D10AE0CA6815E0CA68121DAD
:1008200012E0CA6808320FE0CA680C320CE08A682D
:100830002AB1012A4FF0080203D0456104E00422E6
:1008400002E0056100E00022FF2B01D8064601E02E
:1008500000F104064FEA840501D9A5F12005D6F878
:1008600000C009FA05F82CEA080C02FA05F54CEA72
:10087000050CC6F800C04D68ED0057D5304DAE6987
:1008800046F00106AE61AD6924F0030605F00105EE
:1008900000952C4D06EB050CDCF80850A6074FEA36
:1008A000167809FA08F6B543274EB04202D1002661
:1008B00010E03BE0254EB04201D101260AE0244E73
:1008C000B04201D1022605E0224EB04201D10326FA
:1008D00000E0042606FA08F62E43CCF808604D68BE
:1008E000DAF80060ED03554601D51E4300E09E4353
:1008F0002E604D68DBF80060AD035D4601D51E43F8
:1009000000E09E432E604D68DEF80060ED02754603
:1009100001D51E4300E09E432E604D68AD020E4D92
:100920002E6801D51E4300E09E432E60641C102CEF
:10093000FFF444AFBDE8F88F00040140000011103F
:10094000001002400000014000080140000C01407E
:1009500000100140001401400C040140C2684A40EC
:10096000C26070470AB1016170470904FBE70000EB
:1009700001480068704700000400002070B50400C2
:1009800004D094F83500002510B106E0012070BDB8
:1009900084F83450204600F0DFF9242084F8350034
:1009A0002068016821F00101016000F05FFB014651
:1009B00028482268B1FBF0F05060274A63689342F0
:1009C00006D94FF4967358434FF47A73B0FBF3F0A3
:1009D0002368401C18626068904208D84000B1FB50
:1009E000F0F0C0F30B01042916D2042014E0A26831
:1009F00052B100EBC00202EB0010B1FBF0F040F48A
:100A00004040010507D007E000EB4000B1FBF0F0EB
:100A100040F40040F5E701202168C861D4E90701EE
:100A2000084321680860D4E90310084321688860FE
:100A3000D4E9050108432168C8602068016841F0D5
:100A400001010160A563202084F8350084F8365048
:100A5000002070BD40420F00A08601002DE9F84340
:100A6000044690F83500DDF820901E46154688466D
:100A7000202878D1002D5ED0002E5CD042F2107379
:100A800001226849204601F0C1F80028F1D194F80C
:100A90003400012867D0012084F834002068016800
:100AA00021F400610160222084F83500102084F8D0
:100AB00036000027A7634A464146204601F00EF85B
:100AC00028B1A06B84F83470042834D072E0012E71
:100AD0001AD02068DFF85081022E01682ED041F430
:100AE000806101602068416980690090032E74D89C
:100AF000012E18D0022E2ED04B4600224146204611
:100B000001F084F880BB42E02068016821F4806134
:100B1000016072B62068416981690091016841F401
:100B20000071016062B64946204601F0F8F8E0B174
:100B3000A06B20283ED00120BDE8F88341F400617D
:100B4000016072B62068416981690091016821F4F1
:100B50008061016062B64B4600224146204601F0AA
:100B600055F808B905E05AE024E0206800692870CB
:100B70004CE072B62068016841F4007101602068A1
:100B80000069287062B62068006968703EE02068DD
:100B9000016821F48061016072B62068006905F87F
:100BA000010B761EB6B24B4600224146204601F0AC
:100BB0002DF808B10320BFE72068016841F40071F7
:100BC00001602068006905F8010B62B620680069C1
:100BD00005F8010BB61E15E0FFE74946204601F077
:100BE0009EF80028A4D12068006905F8010B21684F
:100BF000761EB6B24869C043400704D4086905F8B8
:100C0000010B761EB6B2002E7FF470AF202084F860
:100C1000350084F8367084F8347000208CE70220A8
:100C20008AE7000002001000040001002DE9F843EB
:100C3000044690F83500DDF820801D4617468946A9
:100C400020287BD1002F7AD0002D7ED042F2107365
:100C500001224049204600F0D9FF002877D194F8BE
:100C60003400012873D0012084F834002068016822
:100C700021F400610160212084F83500102084F8FF
:100C800036000026A66342464946204600F084FF0F
:100C900028B1A06B84F83460042856D00BE020689B
:100CA0004169806900904146204601F06BF828B107
:100CB000A06B042844D00320BDE8F883216817F80E
:100CC000010B086120686D1EADB24169C943490737
:100CD00005D435B117F8011B01616D1EADB2002DB1
:100CE000E1D14546FFF744FE8046202716E0204626
:100CF00000F0DFFE0028DBD1681C0FD02DB1FFF71C
:100D000037FEA0EB0800A84208D9A06B40F02001F4
:100D1000A16384F8357084F83460C9E720684069BD
:100D2000C0434007E3D42068016841F400710160CA
:100D300084F8357084F834600020BDE707E004E0F3
:100D40002068016841F4007101600120B4E70220CD
:100D5000B2E700000200100000B500680C4985B041
:100D6000884212D1C02000901220019003200390ED
:100D700069460848FFF714FD0748C16941F40011AE
:100D8000C161C06900F40010049005B000BD00000E
:100D900000540040000C014000100240024801686D
:100DA000491C01607047000004000020074810B58E
:100DB000016841F010010160032000F07BF8002081
:100DC00000F006F800F016F8002010BD00200240E8
:100DD00010B5044600F044F94FF47A71B0FBF1F01D
:100DE00000F0F5FC00222146501E00F043F80020E0
:100DF00010BD00001D4808B5816941F00101816105
:100E0000806900F001000090032000F053F80022F8
:100E100011466FF00B0000F02DF8002211466FF024
:100E20000A0000F027F8002211466FF0090000F0D8
:100E300021F800221146501F00F01CF80022114634
:100E4000101F00F017F800221146901E00F012F853
:100E500000221146501E00F00DF80548416821F0AF
:100E6000E06141F00071416008BD000000100240E7
:100E700000000140F0B40E4B1B680C46C3F3022384
:100E8000C3F10705042D00D90425191D072901D236
:100E9000002300E0DB1E012606FA05F1491E214071
:100EA00099409E40761E16403143F0BC00F0FABFD8
:100EB0000CED00E0064900F0070208684FF6FF035A
:100EC000184040EA0220034A1043086070470000BF
:100ED0000CED00E00000FA052DE9F047DFF8708125
:100EE00005460E46D8F8000000F00700B0420CD2CC
:100EF000D8F8001021F007013143C8F80010D8F8E5
:100F0000000000F00700B04277D12878514C8007EC
:100F100005D56068A96820F0F00008436060287873
:100F2000C00759D06968012001290DD0022929D0B4
:100F30005FF0020393FAA3F2B2FA82F242F02002C7
:100F4000520904D0226803E04FF40033F2E7626AEA
:100F500093FAA3F3B3FA83F303F01F03984002421A
:100F60004BD0606820F0030008436060FFF700FD8D
:100F70006968074641F2883001290DD0022981466F
:100F800017D025E04FF00073D4E700BFFFF7F0FC67
:100F9000C11B494501D918E081466068C0F3810052
:100FA0000128F3D118E000BFFFF7E2FCC11B49455F
:100FB0000BD86068C0F381000228F5D10CE000BFB7
:100FC000FFF7D6FCC11B494502D90320BDE8F087D5
:100FD000606810F00C0FF3D1D8F80010404601F013
:100FE0000701B1420BD9016821F0070131430160CB
:100FF000006800F00700B04201D00120E6E7287841
:10100000400705D56068E96820F4E0600843606047
:101010002878000706D56068296920F4605040EA06
:10102000C100606000F052F86168F02292FAA2F20A
:1010300001F0F001B2FA82F2D140074A515CC84097
:10104000064908600020FFF7C3FE0020BEE700004D
:101050000020024000100240102D0008080000206F
:10106000014800687047000008000020084809494E
:10107000006849684FF4E06292FAA2F201F4E0617C
:10108000B2FA82F2D140044A515CC8407047000075
:101090000800002000100240202D000808480949DF
:1010A000006849684FF4605292FAA2F201F460516C
:1010B000B2FA82F2D140044A515CC8407047000045
:1010C0000800002000100240202D000810B519A3D0
:1010D00085B00FCB8DE80F001AA01B4B0068049061
:1010E0005A681A4802F00C0104291DD008291BD1A6
:1010F0004FF4701494FAA4F402F47011B4FA84F466
:10110000E140D2031DF8011010D55A684FF40033A6
:1011100093FAA3F302F40032B3FA83F3DA4004AB98
:101120009A5CB0FBF2F0484305B010BD0848484354
:10113000FAE7000002030405060708090A0B0C0D74
:101140000E0F1010010200000010024000127A0081
:1011500000093D002DE9F84F04460078F74DC0071F
:101160004FF0010625D068687704C0F3810001289C
:1011700007D06868C0F3810002281BD16868C003EB
:1011800018D597FAA7F0B0FA80F040F02000400997
:1011900001D0286800E0686A97FAA7F1B1FA81F1F6
:1011A00001F01F0106FA01F108425ED060680028D4
:1011B0007CD05AE06068B0F5803F0BD010B1B0F53C
:1011C000A02F11D0286820F480302860286820F4EF
:1011D000802002E0286840F480302860606828B3EE
:1011E000FFF7C6FB80460BE0286840F480202860AB
:1011F000F0E700BFFFF7BCFBA0EB0800642871D844
:1012000097FAA7F0B0FA80F040F02000400901D032
:10121000286800E0686A97FAA7F1B1FA81F101F055
:101220001F0106FA01F10842E4D01EE0FFF7A0FB1F
:10123000804605E0FFF79CFBA0EB08006428DED8A1
:1012400097FAA7F0B0FA80F040F02000400901D0F2
:10125000286800E0686A97FAA7F1B1FA81F101F015
:101260001F0106FA01F10842E4D12078DFF8D082AC
:1012700080074FF000094FF002075BD568684FF018
:10128000F80B10F00C0F07D06868C0F3810002283B
:101290001CD16868C00319D497FAA7F0B0FA80F09F
:1012A00040F02000400902D0286801E08BE0686A25
:1012B00097FAA7F1B1FA81F101F01F0106FA01F1E5
:1012C00008422CD0206901287DD128E0206990B304
:1012D00096FAA6F0B0FA80F048F82060FFF748FBD5
:1012E000824607E011E100BFFFF742FBA0EB0A00D6
:1012F000022884D897FAA7F0B0FA80F040F02000D6
:10130000400901D0286800E0686A97FAA7F1B1FAAD
:1013100081F101F01F0106FA01F10842E4D02868CA
:101320009BFAABF26169B2FA82F220F0F8009140C8
:101330000843286025E0FFE796FAA6F1B1FA81F1AB
:1013400048F82190FFF714FB824605E0FFF710FBF9
:10135000A0EB0A000228CCD897FAA7F0B0FA80F0E8
:1013600040F02000400901D0286800E0686A97FA40
:10137000A7F1B1FA81F101F01F0106FA01F108426B
:10138000E4D1207800076ED5A069B8B396FAA6F02C
:10139000B0FA80F008EB8000C0F88064FFF7E8FA4C
:1013A000824605E0FFF7E4FAA0EB0A000228A0D885
:1013B00097FAA7F0B0FA80F040F06000B6EB501F4B
:1013C00002D128680CE062E197FAA7F0B0FA80F049
:1013D00040F06000B7EB501F01D1286A00E0686A56
:1013E00097FAA7F1B1FA81F101F01F0106FA01F2B3
:1013F0001042D7D00120FFF7C7F934E0FFE796FA93
:10140000A6F1B1FA81F108EB8101C1F88094FFF7F0
:10141000AFFA824606E000BFFFF7AAFAA0EB0A0087
:10142000022872D897FAA7F0B0FA80F040F0600076
:10143000B6EB501F01D128680BE097FAA7F0B0FA7D
:1014400080F040F06000B7EB501F01D1286A00E047
:10145000686A97FAA7F1B1FA81F101F01F0106FA63
:1014600001F21042D8D12078400765D5E86940F0F4
:101470008050E861E869DFF8CCB000F0805000905F
:10148000DBF8001041F48071CBF80010FFF770FA20
:10149000824605E0FFF76CFAA0EB0A00642834D816
:1014A000DBF80000C005F5D5E06801280AD008B1D6
:1014B000052813D0286A20F001002862286A20F04D
:1014C000040002E0286A40F001002862E06841F26E
:1014D000883B90B3FFF74CFA82460BE0286A40F055
:1014E00004002862EEE700BFFFF742FAA0EB0A0112
:1014F00059450AD897FAA7F0B0FA80F040F04000BA
:10150000B6EB501F02D128680CE0A3E097FAA7F0D1
:10151000B0FA80F040F04000B7EB501F01D1286ACC
:1015200000E0686A97FAA7F1B1FA81F101F01F02B1
:1015300006FA02F10842D7D031E005E0001002407F
:101540000000424200700040FFF712FA824605E0B8
:10155000FFF70EFAA0EB0A0159457BD897FAA7F0DE
:10156000B0FA80F040F04000B6EB501F01D128687F
:101570000BE097FAA7F0B0FA80F040F04000B7EB2C
:10158000501F01D1286A00E0686A97FAA7F1B1FA02
:1015900081F101F01F0206FA02F10842D8D1E06998
:1015A00080B36968C1F38101022970D04FF0807166
:1015B0004F000228484609D091FAA1F1B1FA81F111
:1015C00048F82100FFF7D4F9044669E08A4691FA09
:1015D000A1F1B1FA81F1C14648F82100FFF7C8F93D
:1015E000804605E0FFF7C4F9A0EB0800022854D8B4
:1015F00097FAA7F0B0FA80F040F02000400902D03E
:10160000286801E061E0686A97FAA7F1B1FA81F110
:1016100001F01F0106FA01F10842E3D1206AB0F59A
:10162000803F05D16868A16820F4003008436860F5
:10163000D4E908010843696821F47411084368601B
:101640009AFAAAF0B0FA80F049F82060FFF790F912
:10165000044606E021E000BFFFF78AF9001B0228DC
:101660001BD897FAA7F0B0FA80F040F020004009AC
:1016700001D0286800E0686A97FAA7F1B1FA81F111
:1016800001F01F0106FA01F10842E5D01DE01EE05D
:10169000FFF76EF9001B022802D90320BDE8F88F7E
:1016A00097FAA7F0B0FA80F040F02000400901D08E
:1016B000286800E0686A97FAA7F1B1FA81F101F0B1
:1016C0001F0106FA01F10842E2D10020E6E70120FD
:1016D000E4E7000010B5040003D094F8510010B105
:1016E00004E0012010BD204600F038F8022084F804
:1016F00051002068016821F040010160D4E9010136
:101700000843D4E903121143084361690843218B5C
:1017100001F400710843E1690843216A0843A16AA2
:10172000084321680860A069042101EA1040616A49
:101730000843216848602168E06A08612068C1693F
:1017400021F40061C1610449002008706065012036
:1017500084F85100002010BD0000002010B5006882
:10176000114986B088421CD11048816941F48051EA
:10177000816180690E4C00F480500490A02000909C
:10178000022001900320039069462046FFF708F8E5
:1017900000214020CDE90001029169462046FEF774
:1017A000FFFF06B010BD00000030014000100240F5
:1017B000000801404FF0E0210428086903D020F020
:1017C00004000861704740F00400FAE7704710B564
:1017D000401EB0F1807F01D3012010BD4FF0E02406
:1017E00060610F21601700F05DFB0020A061072001
:1017F0002061002010BD10B5FFF7E8FF10BD70B5E7
:10180000040004D094F83900002510B106E001204E
:1018100070BD84F83850204600F020F8022084F88B
:1018200039002068C16821F40051C160204600F0F1
:10183000A3FB2068016921F490410161206841699E
:1018400021F02A0141612068C16841F40051C16062
:10185000E563012084F83900002070BDF0B503680D
:10186000274F0220002427490322274D460285B036
:10187000BB4212D18B6943F480438B618969039227
:1018800001F4804104910102CDE900106946284627
:10189000FEF786FFCDE9006414E01C4FBB4218D16F
:1018A000CB6943F40033CB61C969039201F4003181
:1018B00004910421CDE9001069462846FEF770FF27
:1018C00008201AE0694628460294FEF769FF05B031
:1018D000F0BD0F4DAB42FAD1CB6943F48023CB610D
:1018E000C9690C4D01F48021CDE90321CDE90060E7
:1018F00069462846FEF754FFE814CDE90004E1E705
:10190000003801400010024000080140004400403F
:1019100000480040000C01402DE9F047044690F8D3
:10192000390099460D46012801D0122858D12DB30F
:1019300022B394F83800012852D0012684F8386088
:101940000027E76394F8390012281AD05FF02200CC
:1019500084F83900A285E2854FF48058E08D4B462B
:10196000401EE085A0684FF0000240454FF0200186
:10197000204616D100F0B8FBB0B904E00120BDE864
:10198000F0873220E4E7206900282068406803D00F
:10199000C1B225F8011B12E0C0F3080125F8021BB3
:1019A0000DE000F0A1FB08B10320E8E72069002862
:1019B0002068406801D000F07F0005F8010BE08D41
:1019C0000028CBD194F83900322805D084F839604A
:1019D00084F838700020D2E7122084F83900F7E745
:1019E0000220CCE72DE9F047044690F839009946EB
:1019F0000D46012801D0222858D12DB322B394F8E6
:101A00003800012852D0012684F838600027E763A7
:101A100094F8390022281AD05FF0120084F83900B7
:101A2000A284E2844FF48058E08C4B46401EE08450
:101A3000A0684FF0000240454FF08001204613D1CE
:101A400000F052FB08BB04E00120BDE8F087322023
:101A5000E4E728882168C0F308004860206908B1DD
:101A60006D1C08E0AD1C06E000F03EFB68B9216883
:101A700015F8010B4860E08C0028D5D14B460022B8
:101A80004021204600F030FB08B10320DDE794F848
:101A90003900322806D084F8396000BF84F83870E5
:101AA0000020D2E7222084F83900F7E70220CCE7B3
:101AB000FEE701684A69D24352050DD44A6922F40F
:101AC00080624A6104218163202180F83510002161
:101AD00080F8341001207047002070472DE9F8434A
:101AE000044600680D469146016841F4806101603A
:101AF0002068016841F48071016013464FF00117BE
:101B000000223946204600F081F898BB206907F191
:101B10000108B0F5804F10D00620216800EAD516E4
:101B200046F0F00008614A46F91D204600F0B3F87F
:101B300038B1A06B04282CD01CE0E8B240F00100C2
:101B40001DE02168E8B208614A464146204600F09F
:101B5000A2F80028EDD120684169816900910168EF
:101B600041F4807101604B4600223946204600F066
:101B70004DF810B10320BDE8F88346F0F10021686C
:101B800008614A464146204600F085F80028D0D139
:101B9000F1E70120EFE7000070B5044600680D464C
:101BA0001646016841F480710160134600224FF02F
:101BB0000111204600F02AF898B92069B0F5804F4D
:101BC00011D00620216800EAD51040F0F00008612D
:101BD00032460D49204600F05EF838B1A06B04286B
:101BE00010D0032070BD05F0FE0000E0E8B22168CF
:101BF000086105493246891F204600F04CF800284C
:101C0000ECD170BD012070BD080001002DE9F05F2E
:101C10001E4690460C460546FEF7AAFE81464FF04A
:101C2000000A4FF0200BC4F30747B8F1000F09D0AA
:101C300024E0701C06D0D6B1FEF79AFEA0EB090096
:101C4000B04214D82868012F06D0806924EA000029
:101C50000004000C1BD0ECE74069F7E7701C0DD0C6
:101C60002EB1FEF785FEA0EB0900B04206D985F83B
:101C700035B085F834A00320BDE8F09F2868012F17
:101C800007D0806924EA00000004000CE6D00020A0
:101C9000F2E74069F6E72DE9F04791460D46044624
:101CA000FEF766FE824600274FF02008C5F3074680
:101CB00029E020684069C043400512D420680168CB
:101CC00041F4007101602068416921F48061416143
:101CD0000420A06384F8358084F834700120BDE8C6
:101CE000F087B9F1FF3F0ED0B9F1000F05D0FEF734
:101CF0003FFEA0EB0A01494505D984F8358084F8F8
:101D000034700320EBE72068012E06D0806925EAB5
:101D100000000004000CE2D0CBE74069F7E72DE9B2
:101D2000F04188460446FEF723FE0025064620279C
:101D300021E04169C943C9060BD4416921F0100172
:101D40004161A56384F8357084F834500120BDE802
:101D5000F081B8F1000F04D0FEF70AFE811B414567
:101D600009D954F8380F40F0200044F8040967708E
:101D700025700320EBE720684169C9434906D8D4A0
:101D80000020E4E770B50D460446FEF7F1FD064677
:101D900019E02046FFF78DFE08B1012070BD681CD8
:101DA00011D025B1FEF7E4FD801BA8420BD954F8F1
:101DB000380F40F0200044F8040920206070002013
:101DC0002070032070BD20684069C0430006E0D445
:101DD000002070BD2DE9F0411E4886B0816941F0B8
:101DE00010018161816901F010010491816941F064
:101DF00004018161816901F004010491816941F06C
:101E0000080181618069144F00F008004FF400540C
:101E10000490002221463846FEF7A4FDDFF83C80FE
:101E20004FF48876002231464046FEF79BFD009431
:101E3000012402256946384603950194FEF7B0FC5B
:101E4000CDE90064694640460395FEF7A9FC06B05B
:101E5000BDE8F08100100240001001400008014080
:101E60000E4810B50C4901604FF4827141600021A9
:101E70008160C1604FF400720161C0E90512C16167
:101E80000162416281620A21C162FFF723FC0028DE
:101E900000D0FEE710BD0000003001404C000020E3
:101EA000FEE770470907090E002806DA00F00F0068
:101EB00000F1E02080F8141D704700F1E02080F868
:101EC000001470477047704710B5FEF767FFBDE814
:101ED0001040FFF790BC10B590B002200090012098
:101EE000049010200024059007946846FFF732F90B
:101EF00000B1FEE70F20CDE90A040C940D940021F7
:101F00000AA80E94FEF7E8FF00B1FEE7FFF7A8F875
:101F10004FF47A71B0FBF1F0FFF759FC0420FFF7A2
:101F200049FC00221146501EFEF7A4FF10B010BD60
:101F30000D48016841F00101016041680B4A114000
:101F4000416001680A4A11400160016821F4802162
:101F50000160416821F4FE0141604FF41F0181607E
:101F60000449C00308607047001002400000FFF8F9
:101F7000FFFFF6FE08ED00E02DE9F04104460068A1
:101F80000169E26821F44051114301612169A068AF
:101F90000843616908432168CA6841F20C639A43A7
:101FA0000243CA6020684169A26921F4407111436B
:101FB00041614C4920686425322688423CD1FFF7B4
:101FC0006DF800EBC00101EB001061688900B0FB07
:101FD000F1F7FFF763F800EBC00101EB0010616857
:101FE000B0468900B0FBF1F0B0FBF5F06FF01801DE
:101FF000484307EB800106EB0110B0FBF5F000F061
:10200000F006FFF74BF800EBC00101EB0010616830
:102010008900B0FBF1F0B0FBF5F006EB0016FFF71E
:102020003DF800EBC00101EB001061688900B0FBD6
:10203000F1F7FFF733F83BE0FFF718F800EBC001CA
:1020400001EB001061688900B0FBF1F7FFF70EF8B3
:1020500000EBC00101EB00106168B0468900B0FBE5
:10206000F1F0B0FBF5F06FF01801484307EB800189
:1020700006EB0110B0FBF5F000F0F006FEF7F6FFFE
:1020800000EBC00101EB001061688900B0FBF1F0CA
:10209000B0FBF5F006EB0016FEF7E8FF00EBC00121
:1020A00001EB001061688900B0FBF1F7FEF7DEFF7D
:1020B00000EBC00101EB001061688900B0FBF1F09A
:1020C000B0FBF5F06FF01801484307EB800108EB17
:1020D0000110B0FBF5F0216800F00F00304488607B
:1020E000BDE8F081003801402DE9F0471D469046DB
:1020F0000E460446FEF73CFC07465FEA08004FF038
:1021000000094FF0010808D030E0681C05D095B1F7
:10211000FEF72EFCC01BA8420DD82068006836EAE6
:102120000000F2D127E0681C20D025B1FEF720FC8A
:10213000C01BA8421AD92068C16821F08001C16083
:102140002068C16821F02001C1602068C16821F4C5
:102150008071C1602068416921F00101416184F80A
:10216000398084F838900320BDE8F0872068006843
:1021700036EA0000D7D00020F6E7FEE70FB4054BA3
:1021800010B503A9044A029800F0DEF810BC5DF80F
:1021900014FB0000812A00080C0000200FB4084B3B
:1021A00010B504A902AA039800F0CEF8044602A9CB
:1021B000002000F060FC204610BC5DF814FB00001D
:1021C000772A000802E008C8121F08C1002AFAD1C5
:1021D00070477047002001E001C1121F002AFBD1A7
:1021E000704700002DE9FF5FDDE90220010DDDF8F9
:1021F00038B0024318D044F61050A1F2FF314143E9
:102200000D140F98012820D0A5EB0B00401C5FEAAD
:10221000000A4FF00004474EDFF81C91A0465046DC
:1022200016D5CAF1000728E00F98012443A201281F
:1022300008D0002100980F9BC0E90021C0E90243AB
:10224000BDE8FF9F6FEA0B01F4E7CBF10000DEE78A
:10225000074612E0F80707D0224633464046494673
:10226000FEF71EF880468946224633461046194638
:10227000FEF716F804460E467F10002FEAD1DDE97E
:102280000201BAF1000F42464B4602DAFEF708F8A7
:1022900001E0FEF7C6F904460E460022284BFEF781
:1022A00047FA03D84FF0FF30014607E00022254BE4
:1022B00020463146FDF74DFFFEF722FA102409E0D3
:1022C000002C0ADB0A220023FEF7C5F8019B3032FE
:1022D0001A55641E50EA0102F2D1641C019AC4F13D
:1022E000110314440F9A012A03D0012208430DD18F
:1022F0000AE0084304D000204FF0110B0F9080E754
:10230000A3EB0B056D1E0DE05B4504DD4FF00002F5
:1023100005F1010504E003DA4FF00002A5F1010523
:10232000002AECD000980F99C0E90231C0E90045BD
:1023300086E70000000024400000F03F300000006D
:102340000000F0430000E03F2DE9FF4F95B09B46B1
:102350008946064600250FE2252877D10024274626
:10236000F84A0121059400E0044316F8013F203BA0
:1023700001FA03F01042F7D130782A2811D06FF01B
:102380002F033078A0F13002092A16D8059A44F0BC
:10239000020402EB820203EB42021044761C059019
:1023A000EFE759F8042B0592002A03DA504244F46F
:1023B0000054059044F00204761C30782E2816D183
:1023C00016F8010F44F004042A280DD06FF02F02F4
:1023D0003078A0F13003092B09D807EB870302EB13
:1023E0004303C718761CF3E759F8047B761C307852
:1023F0006C280FD006DC4C2817D068280DD06A282E
:1024000014D104E0742810D07A280FD10DE044F4E0
:1024100000140AE044F4801401E044F4401472789B
:10242000824202D104F58014761C761C307866282E
:102430000BD013DC582877D009DC002875D045284C
:10244000F6D04628F4D047281AD19DE118E0632839
:1024500035D0642879D0652812D195E1702873D0E1
:1024600008DC6728F1D069286FD06E280DD06F285E
:1024700006D1B5E073282CD0752875D0782874D093
:102480005A46179990476D1C75E1C4F30250022813
:1024900009D003280DD0D9F8001004280DD00D6004
:1024A00009F1040967E1D9F80010EA17C1E90052FF
:1024B000F6E7D9F800100D80F2E70D70F0E719F893
:1024C000041B8DF8001000208DF80100EA46012061
:1024D00003E059F804AB4FF0FF3061074FF0000103
:1024E00002D40DE008F101018846B9420FDA8045B7
:1024F000F8DB1AF808100029F4D108E008F101010E
:1025000088468142FADB1AF808100029F6D10598AE
:102510005B46A0EB080721463846179A00F094FA6C
:10252000284400EB080507E04DE029E10DE01AF82A
:10253000010B5A4617999047B8F10108F7D25B464C
:1025400021463846179A13E142E00A220092C4F36A
:1025500002524FF0000A022A08D059F804CB032A8D
:102560004FEAEC710AD00DE029E02AE009F10701F9
:1025700021F00702F2E802C1914609E00FFA8CFC53
:102580004FEAEC71042A03D14FFA8CFC4FEAEC714C
:10259000002907DA0A460021DCF1000C61EB020198
:1025A0002D2202E0220504D52B228DF804200122E1
:1025B00003E0E20701D02022F7E7904659E00A2124
:1025C00002E010220DE010214FF0000A00910BE014
:1025D00010224FF0000A44F004040827009203E0A0
:1025E00008224FF0000A0092C4F30252022A05D0DA
:1025F00059F804CB0021032A08D009E009F10701AA
:1026000021F00702F2E802C1914605E01FFA8CFCB6
:10261000042A01D10CF0FF0C4FF00008220728D546
:10262000702806D0009B83F0100353EA0A0305D0FC
:102630000EE040228DF80420012208E05CEA01024D
:1026400006D030228DF804208DF805000222904635
:10265000009B83F0080353EA0A030AD15CEA0102F3
:1026600001D1620705D530228DF804204FF0010812
:102670007F1E582804D034A003900EA802900DE0CD
:1026800036A0F9E753466046009AFDF7E4FE84461B
:102690000398825C0298401E029002705CEA01007E
:1026A000F0D1029806A9081A00F1200A600702D5A5
:1026B00024F4803400E00127574502DDA7EB0A002F
:1026C00000E0002000EB0A01009005984144401A08
:1026D0000590E00306D45B462146179A059800F062
:1026E000B3F90544002706E001A85A46C05D1799D2
:1026F00090476D1C7F1C4745F6DBE0030CD55B461D
:102700002146179A059800F09FF9054404E030200F
:102710005A46179990476D1C0099481E0090002951
:10272000F5DC08E0029802995A460078491C0291AB
:10273000179990476D1CBAF10001AAF1010AF1DC6A
:1027400065E1000009280100303132333435363775
:1027500038396162636465660000000030313233ED
:10276000343536373839414243444546000000008D
:1027700000F058F90544761C307800287FF4ECAD61
:1027800019B02846BDE8F08F620700D4062709F18A
:10279000070222F0070CFCE80223E14603F00048A0
:1027A0005FEA080C02D00FF2702C0DE05FEA045CC7
:1027B00002D50FF2682C07E05FEAC47C02D00FF26A
:1027C000602C01E0AFF2700C4FF0FF3823F00043B3
:1027D000CDF850C065280CD006DC452809D0462825
:1027E0001DD047283DD13DE0662818D067287ED10E
:1027F00038E00021112F01DB112000E0781CCDE929
:10280000000106A90EA8FFF7EDFCDDE90F010E9A05
:1028100003910021009207F1010A04914DE04FF06D
:1028200000400097CDE9011006A90EA8FFF7DAFCD9
:10283000DDE90F0203920E9B11990022DDF80CA036
:102840000093049211B9791C00EB010AB7EB0A005E
:1028500004D4C0F1FF3007F1010A0490AAEB07008D
:10286000019044E0012F00DA01270021112F01DD42
:10287000112000E03846CDE9000106A90EA8FFF7B7
:10288000B1FCDDE90F010E9A039100210491009241
:10289000BA4621070CD40399514500DA8A46BAF1A9
:1028A000010F05DD009AAAF10101515C302908D021
:1028B000B84202DA10F1040F06DA0121CDE9011065
:1028C00015E0AAF10101E9E7002805DC04990144BB
:1028D0000491AAEB000102E0411C514500DD8A464B
:1028E0000499401A401C01904FF0004002902007CC
:1028F00004D40198504501DBCDF8048000208DF808
:102900004F0002980DF14F07B0F1004F25D02B205A
:102910000E9002984FF0020800280CDA4042029014
:102920002D200E9007E00A210298FDF77EFD303140
:10293000029007F8011DB8F10001A8F10108F2DCCE
:1029400002980028EFD1791E0E980870307800F0B8
:10295000200040F0450007F8020D12A8C01B00F14E
:1029600007081498007800B1012000EB0A010198D3
:1029700001EBE07105984144401A401E0590E003C8
:1029800006D45B462146179A059800F05DF8054489
:102990001498007818B15A46179990476D1CE003B7
:1029A00024D55B462146179A059800F04DF805445A
:1029B0001CE00498002807DBDDE90301884203DD01
:1029C0000098405C179901E0179930205A469047CB
:1029D000049805F10105401C04900198401E0190E7
:1029E00004D12E205A46179990476D1CBAF1000168
:1029F000AAF1010ADDDC05E017F8010B5A46179928
:102A000090476D1CB8F10001A8F10108F4DC5B46A9
:102A10002146179A0598ABE62D0000002B00000018
:102A2000200000002DE9F041044600251E4617460F
:102A3000880404D405E039462020B0476D1C641E8C
:102A4000F9D52846BDE8F0812DE9F041044600257E
:102A50001E469046C80301D5302700E02027880491
:102A600004D505E041463846B0476D1C641EF9D5D3
:102A70002846BDE8F0810A68531C0B60107070474F
:102A800013B56423012269460248FEF7ABFF0098A4
:102A90001CBD0000A40000209AB0FEF787F9FFF7E4
:102AA0001AFAFFF797F94348414900240160424967
:102AB000C0E901144FF48041C0E903414461802121
:102AC0008461C0E90741FDF759FF00B1FEE7FFF758
:102AD000C7F93848394994304FF4E1360160C0E90C
:102AE00001640C25C460C0E904458461C461FEF73B
:102AF00086FE00B1FEE72F483149D43001604FF423
:102B00001651C0E90114C460C0E904458461C46180
:102B1000FEF775FE00B1FEE72B482A490160C0E9C7
:102B20000164C460C0E904458461C461FEF767FEC6
:102B300000B1FEE7254F4FF400564FF47A754FF47D
:102B4000FA6831463846FDF709FF2846FDF71CFEB6
:102B500000F0ACF81EA20DF15C0C07CA8CE807006F
:102B600019482B46092217A94038FEF73BFF1648A3
:102B70004346092214A94038FEF7CEFE9DF85200C4
:102B80009DF8531001EB0024224614A16846FFF77C
:102B900005FB6846FDF7D6FA82B22B4669460A481D
:102BA000FEF720FF214612A0FFF7E8FAC9E7000070
:102BB0000054004010000020A086010000380140B1
:102BC0000044004000480040240100200010014063
:102BD000FF018600000000007900000074332E74AD
:102BE00078743D2225642070706D22FFFFFF000085
:102BF00070706D3A2025640A000000003EB5E520A3
:102C00008DF808000020FF24CDE90040012302AA2E
:102C100080210A48FEF70AF8022301AA802107480A
:102C20000094FDF71BFFBDF8040040BA00EB400123
:102C3000C1EBC010000C801F3EBD00001000002042
:102C40003EB5E3208DF808000020FF24CDE90040C8
:102C5000012302AA80211048FDF7E8FF022301AA00
:102C600080210D480094FDF7F9FEBDF8040040BA3C
:102C7000FDF79FFB094A0A4BFDF712FB6FF00F02AD
:102C8000FDF780FB074A084BFDF704FB03B0BDE8E6
:102C90003040FDF7AEBB000010000020D7A3703D10
:102CA0000AF76540CDCCCCCCCC6C474030B595B064
:102CB000FFF7C6FF0546FFF7A1FF04462846FDF7CC
:102CC00085FB02460B4608A101A80094FFF766FAAF
:102CD00001A8FDF737FA82B24FF47A7301A90B48C5
:102CE000FEF780FE15B030BD74312E7478743D222D
:102CF000252E3166204322FFFFFF74322E74787434
:102D00003D22256420252522FFFFFF00240100200D
:102D1000000000000000000001020304060708098B
:102D20000000000001020304482D000800000020FC
:102D300010000000C4210008582D000810000020D9
:102D400058050000D4210008000000000000000029
:082D500000A24A04000000008B
:04000005080000ED02
:00000001FF
